{
  "_format": "hh-sol-artifact-1",
  "contractName": "DoctorRegistry",
  "sourceName": "contracts/DoctorRegistry.sol",
  "abi": [
    {
      "inputs": [
        {
          "internalType": "address",
          "name": "initialOwner",
          "type": "address"
        }
      ],
      "stateMutability": "nonpayable",
      "type": "constructor"
    },
    {
      "inputs": [
        {
          "internalType": "address",
          "name": "owner",
          "type": "address"
        }
      ],
      "name": "OwnableInvalidOwner",
      "type": "error"
    },
    {
      "inputs": [
        {
          "internalType": "address",
          "name": "account",
          "type": "address"
        }
      ],
      "name": "OwnableUnauthorizedAccount",
      "type": "error"
    },
    {
      "anonymous": false,
      "inputs": [
        {
          "indexed": true,
          "internalType": "address",
          "name": "doctorAddress",
          "type": "address"
        }
      ],
      "name": "DoctorDeactivated",
      "type": "event"
    },
    {
      "anonymous": false,
      "inputs": [
        {
          "indexed": true,
          "internalType": "address",
          "name": "doctorAddress",
          "type": "address"
        },
        {
          "indexed": false,
          "internalType": "string",
          "name": "name",
          "type": "string"
        },
        {
          "indexed": false,
          "internalType": "string",
          "name": "licenseNumber",
          "type": "string"
        }
      ],
      "name": "DoctorRegistered",
      "type": "event"
    },
    {
      "anonymous": false,
      "inputs": [
        {
          "indexed": true,
          "internalType": "address",
          "name": "previousOwner",
          "type": "address"
        },
        {
          "indexed": true,
          "internalType": "address",
          "name": "newOwner",
          "type": "address"
        }
      ],
      "name": "OwnershipTransferred",
      "type": "event"
    },
    {
      "inputs": [
        {
          "internalType": "address",
          "name": "_doctorAddress",
          "type": "address"
        }
      ],
      "name": "deactivateDoctor",
      "outputs": [],
      "stateMutability": "nonpayable",
      "type": "function"
    },
    {
      "inputs": [
        {
          "internalType": "address",
          "name": "",
          "type": "address"
        }
      ],
      "name": "doctors",
      "outputs": [
        {
          "internalType": "string",
          "name": "name",
          "type": "string"
        },
        {
          "internalType": "string",
          "name": "licenseNumber",
          "type": "string"
        },
        {
          "internalType": "string",
          "name": "specialization",
          "type": "string"
        },
        {
          "internalType": "bool",
          "name": "isActive",
          "type": "bool"
        },
        {
          "internalType": "uint256",
          "name": "registeredAt",
          "type": "uint256"
        }
      ],
      "stateMutability": "view",
      "type": "function"
    },
    {
      "inputs": [
        {
          "internalType": "address",
          "name": "_doctorAddress",
          "type": "address"
        }
      ],
      "name": "getDoctorDetails",
      "outputs": [
        {
          "internalType": "string",
          "name": "name",
          "type": "string"
        },
        {
          "internalType": "string",
          "name": "licenseNumber",
          "type": "string"
        },
        {
          "internalType": "string",
          "name": "specialization",
          "type": "string"
        },
        {
          "internalType": "bool",
          "name": "isActive",
          "type": "bool"
        },
        {
          "internalType": "uint256",
          "name": "registeredAt",
          "type": "uint256"
        }
      ],
      "stateMutability": "view",
      "type": "function"
    },
    {
      "inputs": [
        {
          "internalType": "address",
          "name": "",
          "type": "address"
        }
      ],
      "name": "isVerifiedDoctor",
      "outputs": [
        {
          "internalType": "bool",
          "name": "",
          "type": "bool"
        }
      ],
      "stateMutability": "view",
      "type": "function"
    },
    {
      "inputs": [],
      "name": "owner",
      "outputs": [
        {
          "internalType": "address",
          "name": "",
          "type": "address"
        }
      ],
      "stateMutability": "view",
      "type": "function"
    },
    {
      "inputs": [
        {
          "internalType": "address",
          "name": "_doctorAddress",
          "type": "address"
        },
        {
          "internalType": "string",
          "name": "_name",
          "type": "string"
        },
        {
          "internalType": "string",
          "name": "_licenseNumber",
          "type": "string"
        },
        {
          "internalType": "string",
          "name": "_specialization",
          "type": "string"
        }
      ],
      "name": "registerDoctor",
      "outputs": [],
      "stateMutability": "nonpayable",
      "type": "function"
    },
    {
      "inputs": [],
      "name": "renounceOwnership",
      "outputs": [],
      "stateMutability": "nonpayable",
      "type": "function"
    },
    {
      "inputs": [
        {
          "internalType": "address",
          "name": "newOwner",
          "type": "address"
        }
      ],
      "name": "transferOwnership",
      "outputs": [],
      "stateMutability": "nonpayable",
      "type": "function"
    }
  ],
  "bytecode": "0x608060405234801561001057600080fd5b50604051610cf8380380610cf883398101604081905261002f916100be565b806001600160a01b03811661005e57604051631e4fbdf760e01b81526000600482015260240160405180910390fd5b6100678161006e565b50506100ee565b600080546001600160a01b038381166001600160a01b0319831681178455604051919092169283917f8be0079c531659141344cd1fd0a4f28419497f9722a3daafe3b4186f6b6457e09190a35050565b6000602082840312156100d057600080fd5b81516001600160a01b03811681146100e757600080fd5b9392505050565b610bfb806100fd6000396000f3fe608060405234801561001057600080fd5b50600436106100885760003560e01c806393c095ff1161005b57806393c095ff146100fd578063a9583c2214610110578063bab90dbd14610134578063f2fde38b1461014757600080fd5b806306392ecc1461008d5780631bf9d751146100a2578063715018a6146100da5780638da5cb5b146100e2575b600080fd5b6100a061009b36600461084f565b61015a565b005b6100c56100b036600461084f565b60026020526000908152604090205460ff1681565b60405190151581526020015b60405180910390f35b6100a061022a565b6000546040516001600160a01b0390911681526020016100d1565b6100a061010b366004610916565b61023e565b61012361011e36600461084f565b6103b5565b6040516100d1959493929190610a01565b61012361014236600461084f565b61057f565b6100a061015536600461084f565b610778565b6101626107b6565b6001600160a01b03811660009081526001602052604090206003015460ff166101c95760405162461bcd60e51b8152602060048201526014602482015273446f63746f72206973206e6f742061637469766560601b60448201526064015b60405180910390fd5b6001600160a01b0381166000818152600260209081526040808320805460ff1990811690915560019092528083206003018054909216909155517fb459109f228c8cbf17edfed0fe81c81685ab674fd105641878bd3416f5df45aa9190a250565b6102326107b6565b61023c60006107e3565b565b6001600160a01b03841660009081526001602052604090206003015460ff16156102b65760405162461bcd60e51b8152602060048201526024808201527f446f63746f7220616c7265616479207265676973746572656420616e642061636044820152637469766560e01b60648201526084016101c0565b6040805160a08101825284815260208082018590528183018490526001606083018190524260808401526001600160a01b0388166000908152915291909120815181906103039082610ad8565b50602082015160018201906103189082610ad8565b506040820151600282019061032d9082610ad8565b50606082015160038201805491151560ff199283161790556080909201516004909101556001600160a01b03851660008181526002602052604090819020805490931660011790925590517fbc3a5b2aeb1bc52e3d56d3fd3423dd66cea5ecff8ae1f3bd0d75a0e608da7b85906103a79086908690610b97565b60405180910390a250505050565b6001602052600090815260409020805481906103d090610a4f565b80601f01602080910402602001604051908101604052809291908181526020018280546103fc90610a4f565b80156104495780601f1061041e57610100808354040283529160200191610449565b820191906000526020600020905b81548152906001019060200180831161042c57829003601f168201915b50505050509080600101805461045e90610a4f565b80601f016020809104026020016040519081016040528092919081815260200182805461048a90610a4f565b80156104d75780601f106104ac576101008083540402835291602001916104d7565b820191906000526020600020905b8154815290600101906020018083116104ba57829003601f168201915b5050505050908060020180546104ec90610a4f565b80601f016020809104026020016040519081016040528092919081815260200182805461051890610a4f565b80156105655780601f1061053a57610100808354040283529160200191610565565b820191906000526020600020905b81548152906001019060200180831161054857829003601f168201915b505050506003830154600490930154919260ff1691905085565b6001600160a01b0381166000908152600160208190526040822060038101546004820154825460609586958695919485949293849392840192600285019260ff169185906105cc90610a4f565b80601f01602080910402602001604051908101604052809291908181526020018280546105f890610a4f565b80156106455780601f1061061a57610100808354040283529160200191610645565b820191906000526020600020905b81548152906001019060200180831161062857829003601f168201915b5050505050945083805461065890610a4f565b80601f016020809104026020016040519081016040528092919081815260200182805461068490610a4f565b80156106d15780601f106106a6576101008083540402835291602001916106d1565b820191906000526020600020905b8154815290600101906020018083116106b457829003601f168201915b505050505093508280546106e490610a4f565b80601f016020809104026020016040519081016040528092919081815260200182805461071090610a4f565b801561075d5780601f106107325761010080835404028352916020019161075d565b820191906000526020600020905b81548152906001019060200180831161074057829003601f168201915b50505050509250955095509550955095505091939590929450565b6107806107b6565b6001600160a01b0381166107aa57604051631e4fbdf760e01b8152600060048201526024016101c0565b6107b3816107e3565b50565b6000546001600160a01b0316331461023c5760405163118cdaa760e01b81523360048201526024016101c0565b600080546001600160a01b038381166001600160a01b0319831681178455604051919092169283917f8be0079c531659141344cd1fd0a4f28419497f9722a3daafe3b4186f6b6457e09190a35050565b80356001600160a01b038116811461084a57600080fd5b919050565b60006020828403121561086157600080fd5b61086a82610833565b9392505050565b634e487b7160e01b600052604160045260246000fd5b600082601f83011261089857600080fd5b813567ffffffffffffffff8111156108b2576108b2610871565b604051601f8201601f19908116603f0116810167ffffffffffffffff811182821017156108e1576108e1610871565b6040528181528382016020018510156108f957600080fd5b816020850160208301376000918101602001919091529392505050565b6000806000806080858703121561092c57600080fd5b61093585610833565b9350602085013567ffffffffffffffff81111561095157600080fd5b61095d87828801610887565b935050604085013567ffffffffffffffff81111561097a57600080fd5b61098687828801610887565b925050606085013567ffffffffffffffff8111156109a357600080fd5b6109af87828801610887565b91505092959194509250565b6000815180845260005b818110156109e1576020818501810151868301820152016109c5565b506000602082860101526020601f19601f83011685010191505092915050565b60a081526000610a1460a08301886109bb565b8281036020840152610a2681886109bb565b90508281036040840152610a3a81876109bb565b94151560608401525050608001529392505050565b600181811c90821680610a6357607f821691505b602082108103610a8357634e487b7160e01b600052602260045260246000fd5b50919050565b601f821115610ad357806000526020600020601f840160051c81016020851015610ab05750805b601f840160051c820191505b81811015610ad05760008155600101610abc565b50505b505050565b815167ffffffffffffffff811115610af257610af2610871565b610b0681610b008454610a4f565b84610a89565b6020601f821160018114610b3a5760008315610b225750848201515b600019600385901b1c1916600184901b178455610ad0565b600084815260208120601f198516915b82811015610b6a5787850151825560209485019460019092019101610b4a565b5084821015610b885786840151600019600387901b60f8161c191681555b50505050600190811b01905550565b604081526000610baa60408301856109bb565b8281036020840152610bbc81856109bb565b9594505050505056fea2646970667358221220191d571c868164449090ae97a19422338b8505d6ed8f36e960638326d05f315664736f6c634300081c0033",
  "linkReferences": {},
  "deployedLinkReferences": {}
}