{
    "_format": "hh-sol-artifact-1",
    "contractName": "PharmacyRegistry",
    "sourceName": "contracts/PharmacyRegistry.sol",
    "abi": [
        {
            "inputs": [],
            "stateMutability": "nonpayable",
            "type": "constructor"
        },
        {
            "anonymous": false,
            "inputs": [
                {
                    "indexed": true,
                    "internalType": "address",
                    "name": "pharmacyAddress",
                    "type": "address"
                },
                {
                    "indexed": false,
                    "internalType": "string",
                    "name": "name",
                    "type": "string"
                }
            ],
            "name": "PharmacyRegistered",
            "type": "event"
        },
        {
            "anonymous": false,
            "inputs": [
                {
                    "indexed": true,
                    "internalType": "address",
                    "name": "pharmacyAddress",
                    "type": "address"
                }
            ],
            "name": "PharmacyRemoved",
            "type": "event"
        },
        {
            "inputs": [
                {
                    "internalType": "address",
                    "name": "_pharmacyAddress",
                    "type": "address"
                }
            ],
            "name": "getPharmacyName",
            "outputs": [
                {
                    "internalType": "string",
                    "name": "",
                    "type": "string"
                }
            ],
            "stateMutability": "view",
            "type": "function"
        },
        {
            "inputs": [
                {
                    "internalType": "address",
                    "name": "_pharmacyAddress",
                    "type": "address"
                }
            ],
            "name": "isVerifiedPharmacy",
            "outputs": [
                {
                    "internalType": "bool",
                    "name": "",
                    "type": "bool"
                }
            ],
            "stateMutability": "view",
            "type": "function"
        },
        {
            "inputs": [],
            "name": "owner",
            "outputs": [
                {
                    "internalType": "address",
                    "name": "",
                    "type": "address"
                }
            ],
            "stateMutability": "view",
            "type": "function"
        },
        {
            "inputs": [
                {
                    "internalType": "address",
                    "name": "_pharmacyAddress",
                    "type": "address"
                },
                {
                    "internalType": "string",
                    "name": "_name",
                    "type": "string"
                }
            ],
            "name": "registerPharmacy",
            "outputs": [],
            "stateMutability": "nonpayable",
            "type": "function"
        },
        {
            "inputs": [
                {
                    "internalType": "address",
                    "name": "_pharmacyAddress",
                    "type": "address"
                }
            ],
            "name": "removePharmacy",
            "outputs": [],
            "stateMutability": "nonpayable",
            "type": "function"
        }
    ],
    "bytecode": "0x6080604052348015600f57600080fd5b50600080546001600160a01b031916331790556107b1806100316000396000f3fe608060405234801561001057600080fd5b50600436106100575760003560e01c80636cfa92081461005c5780638da5cb5b14610085578063b962f479146100b0578063ba7b6e39146100c5578063f7dd404d146100d8575b600080fd5b61006f61006a3660046104e3565b6100fb565b60405161007c9190610505565b60405180910390f35b600054610098906001600160a01b031681565b6040516001600160a01b03909116815260200161007c565b6100c36100be366004610569565b6101a7565b005b6100c36100d33660046104e3565b610365565b6100eb6100e63660046104e3565b610441565b604051901515815260200161007c565b6001600160a01b038116600090815260016020526040902080546060919061012290610633565b80601f016020809104026020016040519081016040528092919081815260200182805461014e90610633565b801561019b5780601f106101705761010080835404028352916020019161019b565b820191906000526020600020905b81548152906001019060200180831161017e57829003601f168201915b50505050509050919050565b6001600160a01b03821661020c5760405162461bcd60e51b815260206004820152602160248201527f506861726d61637952656769737472793a20496e76616c6964206164647265736044820152607360f81b60648201526084015b60405180910390fd5b60008151116102755760405162461bcd60e51b815260206004820152602f60248201527f506861726d61637952656769737472793a20506861726d616379206e616d652060448201526e63616e6e6f7420626520656d70747960881b6064820152608401610203565b6001600160a01b0382166000908152600160205260409020805461029890610633565b1590506102fd5760405162461bcd60e51b815260206004820152602d60248201527f506861726d61637952656769737472793a20506861726d61637920616c72656160448201526c191e481c9959da5cdd195c9959609a1b6064820152608401610203565b6001600160a01b038216600090815260016020526040902061031f82826106bc565b50816001600160a01b03167f346b5ee09522a83dc9727385ea5691f38a8023f147921ab0528ffcc33b16354c826040516103599190610505565b60405180910390a25050565b6001600160a01b0381166000908152600160205260408120805461038890610633565b9050116103e95760405162461bcd60e51b815260206004820152602960248201527f506861726d61637952656769737472793a20506861726d616379206e6f7420726044820152681959da5cdd195c995960ba1b6064820152608401610203565b6001600160a01b038116600090815260016020526040812061040a91610471565b6040516001600160a01b038216907f46520b63a5e163f23aef94d996e90fbbec9b8959d1dd37aeb9bcb5a3a20ac5c990600090a250565b6001600160a01b0381166000908152600160205260408120805482919061046790610633565b9050119050919050565b50805461047d90610633565b6000825580601f1061048d575050565b601f0160209004906000526020600020908101906104ab91906104ae565b50565b5b808211156104c357600081556001016104af565b5090565b80356001600160a01b03811681146104de57600080fd5b919050565b6000602082840312156104f557600080fd5b6104fe826104c7565b9392505050565b602081526000825180602084015260005b818110156105335760208186018101516040868401015201610516565b506000604082850101526040601f19601f83011684010191505092915050565b634e487b7160e01b600052604160045260246000fd5b6000806040838503121561057c57600080fd5b610585836104c7565b9150602083013567ffffffffffffffff8111156105a157600080fd5b8301601f810185136105b257600080fd5b803567ffffffffffffffff8111156105cc576105cc610553565b604051601f8201601f19908116603f0116810167ffffffffffffffff811182821017156105fb576105fb610553565b60405281815282820160200187101561061357600080fd5b816020840160208301376000602083830101528093505050509250929050565b600181811c9082168061064757607f821691505b60208210810361066757634e487b7160e01b600052602260045260246000fd5b50919050565b601f8211156106b757806000526020600020601f840160051c810160208510156106945750805b601f840160051c820191505b818110156106b457600081556001016106a0565b50505b505050565b815167ffffffffffffffff8111156106d6576106d6610553565b6106ea816106e48454610633565b8461066d565b6020601f82116001811461071e57600083156107065750848201515b600019600385901b1c1916600184901b1784556106b4565b600084815260208120601f198516915b8281101561074e578785015182556020948501946001909201910161072e565b508482101561076c5786840151600019600387901b60f8161c191681555b50505050600190811b0190555056fea2646970667358221220e9ff573fe73e18596c409679ef30f75012c870d88bdc116d03cb93df0af809c964736f6c634300081c0033",
    "linkReferences": {},
    "deployedLinkReferences": {}
}