{
  "_format": "hh-sol-artifact-1",
  "contractName": "PrescriptionRegistry",
  "sourceName": "contracts/PrescriptionRegistry.sol",
  "abi": [
    {
      "inputs": [
        {
          "internalType": "address",
          "name": "_doctorRegistry",
          "type": "address"
        },
        {
          "internalType": "address",
          "name": "_pharmacyRegistry",
          "type": "address"
        }
      ],
      "stateMutability": "nonpayable",
      "type": "constructor"
    },
    {
      "anonymous": false,
      "inputs": [
        {
          "indexed": true,
          "internalType": "bytes32",
          "name": "prescriptionId",
          "type": "bytes32"
        },
        {
          "indexed": true,
          "internalType": "address",
          "name": "pharmacist",
          "type": "address"
        },
        {
          "indexed": false,
          "internalType": "string",
          "name": "pharmacyName",
          "type": "string"
        },
        {
          "indexed": false,
          "internalType": "uint256",
          "name": "fulfilledAt",
          "type": "uint256"
        }
      ],
      "name": "PrescriptionFulfilled",
      "type": "event"
    },
    {
      "anonymous": false,
      "inputs": [
        {
          "indexed": true,
          "internalType": "bytes32",
          "name": "prescriptionId",
          "type": "bytes32"
        },
        {
          "indexed": true,
          "internalType": "address",
          "name": "doctor",
          "type": "address"
        },
        {
          "indexed": true,
          "internalType": "address",
          "name": "patient",
          "type": "address"
        },
        {
          "indexed": false,
          "internalType": "string",
          "name": "ipfsHash",
          "type": "string"
        }
      ],
      "name": "PrescriptionIssued",
      "type": "event"
    },
    {
      "inputs": [
        {
          "internalType": "address",
          "name": "",
          "type": "address"
        },
        {
          "internalType": "uint256",
          "name": "",
          "type": "uint256"
        }
      ],
      "name": "doctorPrescriptions",
      "outputs": [
        {
          "internalType": "bytes32",
          "name": "",
          "type": "bytes32"
        }
      ],
      "stateMutability": "view",
      "type": "function"
    },
    {
      "inputs": [],
      "name": "doctorRegistry",
      "outputs": [
        {
          "internalType": "contract DoctorRegistry",
          "name": "",
          "type": "address"
        }
      ],
      "stateMutability": "view",
      "type": "function"
    },
    {
      "inputs": [
        {
          "internalType": "bytes32",
          "name": "_prescriptionId",
          "type": "bytes32"
        }
      ],
      "name": "fulfillPrescription",
      "outputs": [],
      "stateMutability": "nonpayable",
      "type": "function"
    },
    {
      "inputs": [
        {
          "internalType": "address",
          "name": "_doctorAddress",
          "type": "address"
        }
      ],
      "name": "getDoctorPrescriptionIds",
      "outputs": [
        {
          "internalType": "bytes32[]",
          "name": "",
          "type": "bytes32[]"
        }
      ],
      "stateMutability": "view",
      "type": "function"
    },
    {
      "inputs": [
        {
          "internalType": "address",
          "name": "_patientAddress",
          "type": "address"
        }
      ],
      "name": "getPatientPrescriptionIds",
      "outputs": [
        {
          "internalType": "bytes32[]",
          "name": "",
          "type": "bytes32[]"
        }
      ],
      "stateMutability": "view",
      "type": "function"
    },
    {
      "inputs": [
        {
          "internalType": "bytes32",
          "name": "_prescriptionId",
          "type": "bytes32"
        }
      ],
      "name": "getPrescriptionDetails",
      "outputs": [
        {
          "internalType": "address",
          "name": "doctor_",
          "type": "address"
        },
        {
          "internalType": "address",
          "name": "patient_",
          "type": "address"
        },
        {
          "internalType": "bytes32",
          "name": "contentHash_",
          "type": "bytes32"
        },
        {
          "internalType": "string",
          "name": "ipfsHash_",
          "type": "string"
        },
        {
          "internalType": "uint256",
          "name": "issuedAt_",
          "type": "uint256"
        },
        {
          "internalType": "uint256",
          "name": "expiryDate_",
          "type": "uint256"
        },
        {
          "components": [
            {
              "internalType": "address",
              "name": "pharmacyAddress",
              "type": "address"
            },
            {
              "internalType": "string",
              "name": "pharmacyName",
              "type": "string"
            },
            {
              "internalType": "uint256",
              "name": "fulfilledAt",
              "type": "uint256"
            }
          ],
          "internalType": "struct PrescriptionRegistry.Fulfillment[]",
          "name": "fulfillments_",
          "type": "tuple[]"
        }
      ],
      "stateMutability": "view",
      "type": "function"
    },
    {
      "inputs": [
        {
          "internalType": "bytes32",
          "name": "_prescriptionId",
          "type": "bytes32"
        },
        {
          "internalType": "address",
          "name": "_pharmacyAddress",
          "type": "address"
        }
      ],
      "name": "hasPharmacyFulfilled",
      "outputs": [
        {
          "internalType": "bool",
          "name": "",
          "type": "bool"
        }
      ],
      "stateMutability": "view",
      "type": "function"
    },
    {
      "inputs": [
        {
          "internalType": "address",
          "name": "_patient",
          "type": "address"
        },
        {
          "internalType": "bytes32",
          "name": "_contentHash",
          "type": "bytes32"
        },
        {
          "internalType": "string",
          "name": "_ipfsHash",
          "type": "string"
        },
        {
          "internalType": "uint256",
          "name": "_expiryDate",
          "type": "uint256"
        }
      ],
      "name": "issuePrescription",
      "outputs": [
        {
          "internalType": "bytes32",
          "name": "",
          "type": "bytes32"
        }
      ],
      "stateMutability": "nonpayable",
      "type": "function"
    },
    {
      "inputs": [
        {
          "internalType": "address",
          "name": "",
          "type": "address"
        },
        {
          "internalType": "uint256",
          "name": "",
          "type": "uint256"
        }
      ],
      "name": "patientPrescriptions",
      "outputs": [
        {
          "internalType": "bytes32",
          "name": "",
          "type": "bytes32"
        }
      ],
      "stateMutability": "view",
      "type": "function"
    },
    {
      "inputs": [],
      "name": "pharmacyRegistry",
      "outputs": [
        {
          "internalType": "contract PharmacyRegistry",
          "name": "",
          "type": "address"
        }
      ],
      "stateMutability": "view",
      "type": "function"
    },
    {
      "inputs": [
        {
          "internalType": "bytes32",
          "name": "",
          "type": "bytes32"
        }
      ],
      "name": "prescriptions",
      "outputs": [
        {
          "internalType": "address",
          "name": "doctor",
          "type": "address"
        },
        {
          "internalType": "address",
          "name": "patient",
          "type": "address"
        },
        {
          "internalType": "bytes32",
          "name": "contentHash",
          "type": "bytes32"
        },
        {
          "internalType": "string",
          "name": "ipfsHash",
          "type": "string"
        },
        {
          "internalType": "uint256",
          "name": "issuedAt",
          "type": "uint256"
        },
        {
          "internalType": "uint256",
          "name": "expiryDate",
          "type": "uint256"
        }
      ],
      "stateMutability": "view",
      "type": "function"
    },
    {
      "inputs": [
        {
          "internalType": "bytes32",
          "name": "_prescriptionId",
          "type": "bytes32"
        },
        {
          "internalType": "bytes32",
          "name": "_expectedContentHash",
          "type": "bytes32"
        }
      ],
      "name": "verifyPrescription",
      "outputs": [
        {
          "internalType": "bool",
          "name": "isValid",
          "type": "bool"
        }
      ],
      "stateMutability": "view",
      "type": "function"
    }
  ],
  "bytecode": "0x6080604052348015600f57600080fd5b506040516113e63803806113e6833981016040819052602c916077565b600080546001600160a01b039384166001600160a01b0319918216179091556001805492909316911617905560a5565b80516001600160a01b0381168114607257600080fd5b919050565b60008060408385031215608957600080fd5b609083605c565b9150609c60208401605c565b90509250929050565b611332806100b46000396000f3fe608060405234801561001057600080fd5b50600436106100b45760003560e01c80637b464e93116100715780637b464e93146101615780637b6d58031461018657806382cfb2ff146101b15780639d7fae31146101c4578063b75e2122146101ea578063d28ce32c1461022757600080fd5b806310df9f22146100b95780633725aa39146100ce5780636559dfc7146100f75780636e99f0d514610118578063733ba56d1461012b5780637826633b1461013e575b600080fd5b6100cc6100c7366004610d05565b61023a565b005b6100e16100dc366004610d3a565b6105f4565b6040516100ee9190610d5c565b60405180910390f35b61010a610105366004610d9f565b610660565b6040519081526020016100ee565b6100e1610126366004610d3a565b610691565b61010a610139366004610d9f565b6106fb565b61015161014c366004610dc9565b610717565b60405190151581526020016100ee565b61017461016f366004610d05565b61075a565b6040516100ee96959493929190610e3b565b600154610199906001600160a01b031681565b6040516001600160a01b0390911681526020016100ee565b600054610199906001600160a01b031681565b6101d76101d2366004610d05565b610826565b6040516100ee9796959493929190610e83565b6101516101f8366004610f58565b60008281526002602090815260408083206001600160a01b038516845260070190915290205460ff1692915050565b61010a610235366004610ff3565b610a4d565b60015460405163f7dd404d60e01b81523360048201526001600160a01b039091169063f7dd404d90602401602060405180830381865afa158015610282573d6000803e3d6000fd5b505050506040513d601f19601f820116820180604052508101906102a69190611095565b61030d5760405162461bcd60e51b815260206004820152602d60248201527f507265736372697074696f6e52656769737472793a204e6f742061207665726960448201526c6669656420706861726d61637960981b60648201526084015b60405180910390fd5b600081815260026020526040902080546001600160a01b03166103425760405162461bcd60e51b8152600401610304906110b7565b80600501544211156103a95760405162461bcd60e51b815260206004820152602a60248201527f507265736372697074696f6e52656769737472793a20507265736372697074696044820152691bdb88195e1c1a5c995960b21b6064820152608401610304565b33600090815260078201602052604090205460ff16156104465760405162461bcd60e51b815260206004820152604c60248201527f507265736372697074696f6e52656769737472793a205468697320706861726d60448201527f6163792068617320616c72656164792066756c66696c6c65642074686973207060648201526b3932b9b1b934b83a34b7b71760a11b608482015260a401610304565b600154604051630d9f524160e31b81523360048201526000916001600160a01b031690636cfa920890602401600060405180830381865afa15801561048f573d6000803e3d6000fd5b505050506040513d6000823e601f3d908101601f191682016040526104b79190810190611108565b905060008151116105215760405162461bcd60e51b815260206004820152602e60248201527f507265736372697074696f6e52656769737472793a20506861726d616379206e60448201526d30b6b2903737ba103337bab7321760911b6064820152608401610304565b604080516060810182523381526020808201848152429383019390935260068501805460018082018355600092835292909120835160039092020180546001600160a01b0319166001600160a01b0390921691909117815592519192919082019061058c9082611208565b5060409182015160029091015533600081815260078501602052829020805460ff19166001179055905184907f4d2fb36c96573040e78cd2c71de33e77c53e57fd771d3ff7c353ae9e6090045d906105e790859042906112c7565b60405180910390a3505050565b6001600160a01b03811660009081526003602090815260409182902080548351818402810184019094528084526060939283018282801561065457602002820191906000526020600020905b815481526020019060010190808311610640575b50505050509050919050565b6004602052816000526040600020818154811061067c57600080fd5b90600052602060002001600091509150505481565b6001600160a01b03811660009081526004602090815260409182902080548351818402810184019094528084526060939283018282801561065457602002820191906000526020600020908154815260200190600101908083116106405750505050509050919050565b6003602052816000526040600020818154811061067c57600080fd5b600082815260026020819052604082209081015483148015610742575080546001600160a01b031615155b8015610752575080600501544211155b949350505050565b600260208190526000918252604090912080546001820154928201546003830180546001600160a01b03938416959093169391926107979061117f565b80601f01602080910402602001604051908101604052809291908181526020018280546107c39061117f565b80156108105780601f106107e557610100808354040283529160200191610810565b820191906000526020600020905b8154815290600101906020018083116107f357829003601f168201915b5050505050908060040154908060050154905086565b60008181526002602052604081208054829182916060918391829184916001600160a01b03166108685760405162461bcd60e51b8152600401610304906110b7565b805460018201546002830154600484015460058501546003860180546001600160a01b03968716969095169490929190600688019084906108a89061117f565b80601f01602080910402602001604051908101604052809291908181526020018280546108d49061117f565b80156109215780601f106108f657610100808354040283529160200191610921565b820191906000526020600020905b81548152906001019060200180831161090457829003601f168201915b5050505050935080805480602002602001604051908101604052809291908181526020016000905b82821015610a2d57600084815260209081902060408051606081019091526003850290910180546001600160a01b0316825260018101805492939192918401916109929061117f565b80601f01602080910402602001604051908101604052809291908181526020018280546109be9061117f565b8015610a0b5780601f106109e057610100808354040283529160200191610a0b565b820191906000526020600020905b8154815290600101906020018083116109ee57829003601f168201915b5050505050815260200160028201548152505081526020019060010190610949565b505050509050975097509750975097509750975050919395979092949650565b60008054604051631bf9d75160e01b81523360048201526001600160a01b0390911690631bf9d75190602401602060405180830381865afa158015610a96573d6000803e3d6000fd5b505050506040513d601f19601f82011682018060405250810190610aba9190611095565b610b1a5760405162461bcd60e51b815260206004820152602b60248201527f507265736372697074696f6e52656769737472793a204e6f742061207665726960448201526a3334b2b2103237b1ba37b960a91b6064820152608401610304565b428211610b7b5760405162461bcd60e51b815260206004820152602960248201527f507265736372697074696f6e52656769737472793a20496e76616c696420657860448201526870697279206461746560b81b6064820152608401610304565b6000848152600260205260409020546001600160a01b031615610c185760405162461bcd60e51b815260206004820152604960248201527f507265736372697074696f6e52656769737472793a205072657363726970746960448201527f6f6e2077697468207468697320636f6e74656e74206861736820616c726561646064820152683c9032bc34b9ba399760b91b608482015260a401610304565b60008481526002602081905260409091208054336001600160a01b03199182161782556001820180549091166001600160a01b03891617905590810185905560038101610c658582611208565b5042600480830191909155600582018490556001600160a01b0387166000818152600360209081526040808320805460018181018355918552838520018b90553380855295835281842080549182018155845291909220018890555190919087907f19d6e8bee0debaf69a45a8410be64214e8327b77d5b1735a0ef1de288acf8c9690610cf39089906112e9565b60405180910390a45092949350505050565b600060208284031215610d1757600080fd5b5035919050565b80356001600160a01b0381168114610d3557600080fd5b919050565b600060208284031215610d4c57600080fd5b610d5582610d1e565b9392505050565b602080825282518282018190526000918401906040840190835b81811015610d94578351835260209384019390920191600101610d76565b509095945050505050565b60008060408385031215610db257600080fd5b610dbb83610d1e565b946020939093013593505050565b60008060408385031215610ddc57600080fd5b50508035926020909101359150565b60005b83811015610e06578181015183820152602001610dee565b50506000910152565b60008151808452610e27816020860160208601610deb565b601f01601f19169290920160200192915050565b6001600160a01b038781168252861660208201526040810185905260c060608201819052600090610e6e90830186610e0f565b60808301949094525060a00152949350505050565b6001600160a01b038881168252871660208201526040810186905260e060608201819052600090610eb690830187610e0f565b8560808401528460a084015282810360c084015280845180835260208301915060208160051b8401016020870160005b83811015610f4557858303601f19018552815180516001600160a01b03168452602080820151606091860182905290610f2190860182610e0f565b60409283015195909201949094526020958601959093509190910190600101610ee6565b50909d9c50505050505050505050505050565b60008060408385031215610f6b57600080fd5b82359150610f7b60208401610d1e565b90509250929050565b634e487b7160e01b600052604160045260246000fd5b604051601f8201601f1916810167ffffffffffffffff81118282101715610fc357610fc3610f84565b604052919050565b600067ffffffffffffffff821115610fe557610fe5610f84565b50601f01601f191660200190565b6000806000806080858703121561100957600080fd5b61101285610d1e565b935060208501359250604085013567ffffffffffffffff81111561103557600080fd5b8501601f8101871361104657600080fd5b803561105961105482610fcb565b610f9a565b81815288602083850101111561106e57600080fd5b81602084016020830137600091810160200191909152949793965093946060013593505050565b6000602082840312156110a757600080fd5b81518015158114610d5557600080fd5b60208082526031908201527f507265736372697074696f6e52656769737472793a20507265736372697074696040820152701bdb88191bd95cc81b9bdd08195e1a5cdd607a1b606082015260800190565b60006020828403121561111a57600080fd5b815167ffffffffffffffff81111561113157600080fd5b8201601f8101841361114257600080fd5b805161115061105482610fcb565b81815285602083850101111561116557600080fd5b611176826020830160208601610deb565b95945050505050565b600181811c9082168061119357607f821691505b6020821081036111b357634e487b7160e01b600052602260045260246000fd5b50919050565b601f82111561120357806000526020600020601f840160051c810160208510156111e05750805b601f840160051c820191505b8181101561120057600081556001016111ec565b50505b505050565b815167ffffffffffffffff81111561122257611222610f84565b61123681611230845461117f565b846111b9565b6020601f82116001811461126a57600083156112525750848201515b600019600385901b1c1916600184901b178455611200565b600084815260208120601f198516915b8281101561129a578785015182556020948501946001909201910161127a565b50848210156112b85786840151600019600387901b60f8161c191681555b50505050600190811b01905550565b6040815260006112da6040830185610e0f565b90508260208301529392505050565b602081526000610d556020830184610e0f56fea2646970667358221220ca12e584d8dfc4ff09bb9a53f86896a9e156cf7c1be49e9aea7d1f6c967d201f64736f6c634300081c0033",
  "linkReferences": {},
  "deployedLinkReferences": {}
}